{
	"data": {
		"bytecode": {
			"linkReferences": {},
			"object": "608060405234801561001057600080fd5b50610aae806100206000396000f3fe6080604052600436106100555760003560e01c806310fe7c481461005a5780636b31ee01146100765780638129fc1c146100a15780638a56f5b5146100b8578063b92e4981146100e3578063ec563f531461010e575b600080fd5b610074600480360381019061006f9190610671565b610139565b005b34801561008257600080fd5b5061008b6104e7565b60405161009891906107b9565b60405180910390f35b3480156100ad57600080fd5b506100b66104ed565b005b3480156100c457600080fd5b506100cd6105e6565b6040516100da91906107b9565b60405180910390f35b3480156100ef57600080fd5b506100f86105ec565b60405161010591906107b9565b60405180910390f35b34801561011a57600080fd5b506101236105f2565b60405161013091906107b9565b60405180910390f35b600354341461017d576040517f08c379a000000000000000000000000000000000000000000000000000000000815260040161017490610759565b60405180910390fd5b60008111801561018e575061271081105b6101cd576040517f08c379a00000000000000000000000000000000000000000000000000000000081526004016101c490610779565b60405180910390fd5b34600460008282546101df91906107e5565b9250508190555060006101f06105f8565b9050808214156102cc5760006001546004541161020f57600454610213565b6001545b90503373ffffffffffffffffffffffffffffffffffffffff166108fc829081150290604051600060405180830381858888f1935050505015801561025b573d6000803e3d6000fd5b50806004600082825461026e919061086c565b925050819055506001823373ffffffffffffffffffffffffffffffffffffffff167fcbab09755b68cba3f1be71b21f735afc01c336f9d6ef36836d59e297d50e8453846040516102be91906107b9565b60405180910390a4506104e3565b600060405180604001604052806103e8856102e791906108fd565b8152602001600a856102f9919061083b565b8152509050600060405180604001604052806103e88561031991906108fd565b8152602001600a8561032b919061083b565b81525090506000805b60028110156103c1578115610348576103c1565b60005b60028110156103ad57821561035f576103ad565b8381600281106103725761037161098c565b5b602002015185836002811061038a5761038961098c565b5b6020020151141561039a57600192505b80806103a5906108aa565b91505061034b565b5080806103b9906108aa565b915050610334565b50801561049a576000600254600454116103dd576004546103e1565b6002545b90503373ffffffffffffffffffffffffffffffffffffffff166108fc829081150290604051600060405180830381858888f19350505050158015610429573d6000803e3d6000fd5b50806004600082825461043c919061086c565b925050819055506002853373ffffffffffffffffffffffffffffffffffffffff167fcbab09755b68cba3f1be71b21f735afc01c336f9d6ef36836d59e297d50e84538460405161048c91906107b9565b60405180910390a4506104df565b833373ffffffffffffffffffffffffffffffffffffffff167f04edad4de4e7286afab9347bdbbc9c23b5048ee6d54efe95565d06d4a9e8146c60405160405180910390a35b5050505b5050565b60045481565b600060019054906101000a900460ff166105155760008054906101000a900460ff161561051e565b61051d610638565b5b61055d576040517f08c379a000000000000000000000000000000000000000000000000000000000815260040161055490610799565b60405180910390fd5b60008060019054906101000a900460ff1615905080156105ad576001600060016101000a81548160ff02191690831515021790555060016000806101000a81548160ff0219169083151502179055505b6305f5e1006001819055506298968060028190555080156105e35760008060016101000a81548160ff0219169083151502179055505b50565b60015481565b60035481565b60025481565b60006103e8424460405160200161061092919061072d565b6040516020818303038152906040528051906020012060001c61063391906108fd565b905090565b600061064330610649565b15905090565b600080823b905060008111915050919050565b60008135905061066b81610a61565b92915050565b600060208284031215610687576106866109bb565b5b60006106958482850161065c565b91505092915050565b60006106ab6013836107d4565b91506106b6826109c0565b602082019050919050565b60006106ce6015836107d4565b91506106d9826109e9565b602082019050919050565b60006106f1602e836107d4565b91506106fc82610a12565b604082019050919050565b610710816108a0565b82525050565b610727610722826108a0565b6108f3565b82525050565b60006107398285610716565b6020820191506107498284610716565b6020820191508190509392505050565b600060208201905081810360008301526107728161069e565b9050919050565b60006020820190508181036000830152610792816106c1565b9050919050565b600060208201905081810360008301526107b2816106e4565b9050919050565b60006020820190506107ce6000830184610707565b92915050565b600082825260208201905092915050565b60006107f0826108a0565b91506107fb836108a0565b9250827fffffffffffffffffffffffffffffffffffffffffffffffffffffffffffffffff038211156108305761082f61092e565b5b828201905092915050565b6000610846826108a0565b9150610851836108a0565b9250826108615761086061095d565b5b828204905092915050565b6000610877826108a0565b9150610882836108a0565b9250828210156108955761089461092e565b5b828203905092915050565b6000819050919050565b60006108b5826108a0565b91507fffffffffffffffffffffffffffffffffffffffffffffffffffffffffffffffff8214156108e8576108e761092e565b5b600182019050919050565b6000819050919050565b6000610908826108a0565b9150610913836108a0565b9250826109235761092261095d565b5b828206905092915050565b7f4e487b7100000000000000000000000000000000000000000000000000000000600052601160045260246000fd5b7f4e487b7100000000000000000000000000000000000000000000000000000000600052601260045260246000fd5b7f4e487b7100000000000000000000000000000000000000000000000000000000600052603260045260246000fd5b600080fd5b7f496e76616c69642062657420616d6f756e742100000000000000000000000000600082015250565b7f496e76616c696420706c616365206e756d626572210000000000000000000000600082015250565b7f496e697469616c697a61626c653a20636f6e747261637420697320616c72656160008201527f647920696e697469616c697a6564000000000000000000000000000000000000602082015250565b610a6a816108a0565b8114610a7557600080fd5b5056fea26469706673582212207188d5f575f46dfaf86856800ee223159ff931e97fcb54f154092ef6c9c7605464736f6c63430008070033",
			"opcodes": "PUSH1 0x80 PUSH1 0x40 MSTORE CALLVALUE DUP1 ISZERO PUSH2 0x10 JUMPI PUSH1 0x0 DUP1 REVERT JUMPDEST POP PUSH2 0xAAE DUP1 PUSH2 0x20 PUSH1 0x0 CODECOPY PUSH1 0x0 RETURN INVALID PUSH1 0x80 PUSH1 0x40 MSTORE PUSH1 0x4 CALLDATASIZE LT PUSH2 0x55 JUMPI PUSH1 0x0 CALLDATALOAD PUSH1 0xE0 SHR DUP1 PUSH4 0x10FE7C48 EQ PUSH2 0x5A JUMPI DUP1 PUSH4 0x6B31EE01 EQ PUSH2 0x76 JUMPI DUP1 PUSH4 0x8129FC1C EQ PUSH2 0xA1 JUMPI DUP1 PUSH4 0x8A56F5B5 EQ PUSH2 0xB8 JUMPI DUP1 PUSH4 0xB92E4981 EQ PUSH2 0xE3 JUMPI DUP1 PUSH4 0xEC563F53 EQ PUSH2 0x10E JUMPI JUMPDEST PUSH1 0x0 DUP1 REVERT JUMPDEST PUSH2 0x74 PUSH1 0x4 DUP1 CALLDATASIZE SUB DUP2 ADD SWAP1 PUSH2 0x6F SWAP2 SWAP1 PUSH2 0x671 JUMP JUMPDEST PUSH2 0x139 JUMP JUMPDEST STOP JUMPDEST CALLVALUE DUP1 ISZERO PUSH2 0x82 JUMPI PUSH1 0x0 DUP1 REVERT JUMPDEST POP PUSH2 0x8B PUSH2 0x4E7 JUMP JUMPDEST PUSH1 0x40 MLOAD PUSH2 0x98 SWAP2 SWAP1 PUSH2 0x7B9 JUMP JUMPDEST PUSH1 0x40 MLOAD DUP1 SWAP2 SUB SWAP1 RETURN JUMPDEST CALLVALUE DUP1 ISZERO PUSH2 0xAD JUMPI PUSH1 0x0 DUP1 REVERT JUMPDEST POP PUSH2 0xB6 PUSH2 0x4ED JUMP JUMPDEST STOP JUMPDEST CALLVALUE DUP1 ISZERO PUSH2 0xC4 JUMPI PUSH1 0x0 DUP1 REVERT JUMPDEST POP PUSH2 0xCD PUSH2 0x5E6 JUMP JUMPDEST PUSH1 0x40 MLOAD PUSH2 0xDA SWAP2 SWAP1 PUSH2 0x7B9 JUMP JUMPDEST PUSH1 0x40 MLOAD DUP1 SWAP2 SUB SWAP1 RETURN JUMPDEST CALLVALUE DUP1 ISZERO PUSH2 0xEF JUMPI PUSH1 0x0 DUP1 REVERT JUMPDEST POP PUSH2 0xF8 PUSH2 0x5EC JUMP JUMPDEST PUSH1 0x40 MLOAD PUSH2 0x105 SWAP2 SWAP1 PUSH2 0x7B9 JUMP JUMPDEST PUSH1 0x40 MLOAD DUP1 SWAP2 SUB SWAP1 RETURN JUMPDEST CALLVALUE DUP1 ISZERO PUSH2 0x11A JUMPI PUSH1 0x0 DUP1 REVERT JUMPDEST POP PUSH2 0x123 PUSH2 0x5F2 JUMP JUMPDEST PUSH1 0x40 MLOAD PUSH2 0x130 SWAP2 SWAP1 PUSH2 0x7B9 JUMP JUMPDEST PUSH1 0x40 MLOAD DUP1 SWAP2 SUB SWAP1 RETURN JUMPDEST PUSH1 0x3 SLOAD CALLVALUE EQ PUSH2 0x17D JUMPI PUSH1 0x40 MLOAD PUSH32 0x8C379A000000000000000000000000000000000000000000000000000000000 DUP2 MSTORE PUSH1 0x4 ADD PUSH2 0x174 SWAP1 PUSH2 0x759 JUMP JUMPDEST PUSH1 0x40 MLOAD DUP1 SWAP2 SUB SWAP1 REVERT JUMPDEST PUSH1 0x0 DUP2 GT DUP1 ISZERO PUSH2 0x18E JUMPI POP PUSH2 0x2710 DUP2 LT JUMPDEST PUSH2 0x1CD JUMPI PUSH1 0x40 MLOAD PUSH32 0x8C379A000000000000000000000000000000000000000000000000000000000 DUP2 MSTORE PUSH1 0x4 ADD PUSH2 0x1C4 SWAP1 PUSH2 0x779 JUMP JUMPDEST PUSH1 0x40 MLOAD DUP1 SWAP2 SUB SWAP1 REVERT JUMPDEST CALLVALUE PUSH1 0x4 PUSH1 0x0 DUP3 DUP3 SLOAD PUSH2 0x1DF SWAP2 SWAP1 PUSH2 0x7E5 JUMP JUMPDEST SWAP3 POP POP DUP2 SWAP1 SSTORE POP PUSH1 0x0 PUSH2 0x1F0 PUSH2 0x5F8 JUMP JUMPDEST SWAP1 POP DUP1 DUP3 EQ ISZERO PUSH2 0x2CC JUMPI PUSH1 0x0 PUSH1 0x1 SLOAD PUSH1 0x4 SLOAD GT PUSH2 0x20F JUMPI PUSH1 0x4 SLOAD PUSH2 0x213 JUMP JUMPDEST PUSH1 0x1 SLOAD JUMPDEST SWAP1 POP CALLER PUSH20 0xFFFFFFFFFFFFFFFFFFFFFFFFFFFFFFFFFFFFFFFF AND PUSH2 0x8FC DUP3 SWAP1 DUP2 ISZERO MUL SWAP1 PUSH1 0x40 MLOAD PUSH1 0x0 PUSH1 0x40 MLOAD DUP1 DUP4 SUB DUP2 DUP6 DUP9 DUP9 CALL SWAP4 POP POP POP POP ISZERO DUP1 ISZERO PUSH2 0x25B JUMPI RETURNDATASIZE PUSH1 0x0 DUP1 RETURNDATACOPY RETURNDATASIZE PUSH1 0x0 REVERT JUMPDEST POP DUP1 PUSH1 0x4 PUSH1 0x0 DUP3 DUP3 SLOAD PUSH2 0x26E SWAP2 SWAP1 PUSH2 0x86C JUMP JUMPDEST SWAP3 POP POP DUP2 SWAP1 SSTORE POP PUSH1 0x1 DUP3 CALLER PUSH20 0xFFFFFFFFFFFFFFFFFFFFFFFFFFFFFFFFFFFFFFFF AND PUSH32 0xCBAB09755B68CBA3F1BE71B21F735AFC01C336F9D6EF36836D59E297D50E8453 DUP5 PUSH1 0x40 MLOAD PUSH2 0x2BE SWAP2 SWAP1 PUSH2 0x7B9 JUMP JUMPDEST PUSH1 0x40 MLOAD DUP1 SWAP2 SUB SWAP1 LOG4 POP PUSH2 0x4E3 JUMP JUMPDEST PUSH1 0x0 PUSH1 0x40 MLOAD DUP1 PUSH1 0x40 ADD PUSH1 0x40 MSTORE DUP1 PUSH2 0x3E8 DUP6 PUSH2 0x2E7 SWAP2 SWAP1 PUSH2 0x8FD JUMP JUMPDEST DUP2 MSTORE PUSH1 0x20 ADD PUSH1 0xA DUP6 PUSH2 0x2F9 SWAP2 SWAP1 PUSH2 0x83B JUMP JUMPDEST DUP2 MSTORE POP SWAP1 POP PUSH1 0x0 PUSH1 0x40 MLOAD DUP1 PUSH1 0x40 ADD PUSH1 0x40 MSTORE DUP1 PUSH2 0x3E8 DUP6 PUSH2 0x319 SWAP2 SWAP1 PUSH2 0x8FD JUMP JUMPDEST DUP2 MSTORE PUSH1 0x20 ADD PUSH1 0xA DUP6 PUSH2 0x32B SWAP2 SWAP1 PUSH2 0x83B JUMP JUMPDEST DUP2 MSTORE POP SWAP1 POP PUSH1 0x0 DUP1 JUMPDEST PUSH1 0x2 DUP2 LT ISZERO PUSH2 0x3C1 JUMPI DUP2 ISZERO PUSH2 0x348 JUMPI PUSH2 0x3C1 JUMP JUMPDEST PUSH1 0x0 JUMPDEST PUSH1 0x2 DUP2 LT ISZERO PUSH2 0x3AD JUMPI DUP3 ISZERO PUSH2 0x35F JUMPI PUSH2 0x3AD JUMP JUMPDEST DUP4 DUP2 PUSH1 0x2 DUP2 LT PUSH2 0x372 JUMPI PUSH2 0x371 PUSH2 0x98C JUMP JUMPDEST JUMPDEST PUSH1 0x20 MUL ADD MLOAD DUP6 DUP4 PUSH1 0x2 DUP2 LT PUSH2 0x38A JUMPI PUSH2 0x389 PUSH2 0x98C JUMP JUMPDEST JUMPDEST PUSH1 0x20 MUL ADD MLOAD EQ ISZERO PUSH2 0x39A JUMPI PUSH1 0x1 SWAP3 POP JUMPDEST DUP1 DUP1 PUSH2 0x3A5 SWAP1 PUSH2 0x8AA JUMP JUMPDEST SWAP2 POP POP PUSH2 0x34B JUMP JUMPDEST POP DUP1 DUP1 PUSH2 0x3B9 SWAP1 PUSH2 0x8AA JUMP JUMPDEST SWAP2 POP POP PUSH2 0x334 JUMP JUMPDEST POP DUP1 ISZERO PUSH2 0x49A JUMPI PUSH1 0x0 PUSH1 0x2 SLOAD PUSH1 0x4 SLOAD GT PUSH2 0x3DD JUMPI PUSH1 0x4 SLOAD PUSH2 0x3E1 JUMP JUMPDEST PUSH1 0x2 SLOAD JUMPDEST SWAP1 POP CALLER PUSH20 0xFFFFFFFFFFFFFFFFFFFFFFFFFFFFFFFFFFFFFFFF AND PUSH2 0x8FC DUP3 SWAP1 DUP2 ISZERO MUL SWAP1 PUSH1 0x40 MLOAD PUSH1 0x0 PUSH1 0x40 MLOAD DUP1 DUP4 SUB DUP2 DUP6 DUP9 DUP9 CALL SWAP4 POP POP POP POP ISZERO DUP1 ISZERO PUSH2 0x429 JUMPI RETURNDATASIZE PUSH1 0x0 DUP1 RETURNDATACOPY RETURNDATASIZE PUSH1 0x0 REVERT JUMPDEST POP DUP1 PUSH1 0x4 PUSH1 0x0 DUP3 DUP3 SLOAD PUSH2 0x43C SWAP2 SWAP1 PUSH2 0x86C JUMP JUMPDEST SWAP3 POP POP DUP2 SWAP1 SSTORE POP PUSH1 0x2 DUP6 CALLER PUSH20 0xFFFFFFFFFFFFFFFFFFFFFFFFFFFFFFFFFFFFFFFF AND PUSH32 0xCBAB09755B68CBA3F1BE71B21F735AFC01C336F9D6EF36836D59E297D50E8453 DUP5 PUSH1 0x40 MLOAD PUSH2 0x48C SWAP2 SWAP1 PUSH2 0x7B9 JUMP JUMPDEST PUSH1 0x40 MLOAD DUP1 SWAP2 SUB SWAP1 LOG4 POP PUSH2 0x4DF JUMP JUMPDEST DUP4 CALLER PUSH20 0xFFFFFFFFFFFFFFFFFFFFFFFFFFFFFFFFFFFFFFFF AND PUSH32 0x4EDAD4DE4E7286AFAB9347BDBBC9C23B5048EE6D54EFE95565D06D4A9E8146C PUSH1 0x40 MLOAD PUSH1 0x40 MLOAD DUP1 SWAP2 SUB SWAP1 LOG3 JUMPDEST POP POP POP JUMPDEST POP POP JUMP JUMPDEST PUSH1 0x4 SLOAD DUP2 JUMP JUMPDEST PUSH1 0x0 PUSH1 0x1 SWAP1 SLOAD SWAP1 PUSH2 0x100 EXP SWAP1 DIV PUSH1 0xFF AND PUSH2 0x515 JUMPI PUSH1 0x0 DUP1 SLOAD SWAP1 PUSH2 0x100 EXP SWAP1 DIV PUSH1 0xFF AND ISZERO PUSH2 0x51E JUMP JUMPDEST PUSH2 0x51D PUSH2 0x638 JUMP JUMPDEST JUMPDEST PUSH2 0x55D JUMPI PUSH1 0x40 MLOAD PUSH32 0x8C379A000000000000000000000000000000000000000000000000000000000 DUP2 MSTORE PUSH1 0x4 ADD PUSH2 0x554 SWAP1 PUSH2 0x799 JUMP JUMPDEST PUSH1 0x40 MLOAD DUP1 SWAP2 SUB SWAP1 REVERT JUMPDEST PUSH1 0x0 DUP1 PUSH1 0x1 SWAP1 SLOAD SWAP1 PUSH2 0x100 EXP SWAP1 DIV PUSH1 0xFF AND ISZERO SWAP1 POP DUP1 ISZERO PUSH2 0x5AD JUMPI PUSH1 0x1 PUSH1 0x0 PUSH1 0x1 PUSH2 0x100 EXP DUP2 SLOAD DUP2 PUSH1 0xFF MUL NOT AND SWAP1 DUP4 ISZERO ISZERO MUL OR SWAP1 SSTORE POP PUSH1 0x1 PUSH1 0x0 DUP1 PUSH2 0x100 EXP DUP2 SLOAD DUP2 PUSH1 0xFF MUL NOT AND SWAP1 DUP4 ISZERO ISZERO MUL OR SWAP1 SSTORE POP JUMPDEST PUSH4 0x5F5E100 PUSH1 0x1 DUP2 SWAP1 SSTORE POP PUSH3 0x989680 PUSH1 0x2 DUP2 SWAP1 SSTORE POP DUP1 ISZERO PUSH2 0x5E3 JUMPI PUSH1 0x0 DUP1 PUSH1 0x1 PUSH2 0x100 EXP DUP2 SLOAD DUP2 PUSH1 0xFF MUL NOT AND SWAP1 DUP4 ISZERO ISZERO MUL OR SWAP1 SSTORE POP JUMPDEST POP JUMP JUMPDEST PUSH1 0x1 SLOAD DUP2 JUMP JUMPDEST PUSH1 0x3 SLOAD DUP2 JUMP JUMPDEST PUSH1 0x2 SLOAD DUP2 JUMP JUMPDEST PUSH1 0x0 PUSH2 0x3E8 TIMESTAMP DIFFICULTY PUSH1 0x40 MLOAD PUSH1 0x20 ADD PUSH2 0x610 SWAP3 SWAP2 SWAP1 PUSH2 0x72D JUMP JUMPDEST PUSH1 0x40 MLOAD PUSH1 0x20 DUP2 DUP4 SUB SUB DUP2 MSTORE SWAP1 PUSH1 0x40 MSTORE DUP1 MLOAD SWAP1 PUSH1 0x20 ADD KECCAK256 PUSH1 0x0 SHR PUSH2 0x633 SWAP2 SWAP1 PUSH2 0x8FD JUMP JUMPDEST SWAP1 POP SWAP1 JUMP JUMPDEST PUSH1 0x0 PUSH2 0x643 ADDRESS PUSH2 0x649 JUMP JUMPDEST ISZERO SWAP1 POP SWAP1 JUMP JUMPDEST PUSH1 0x0 DUP1 DUP3 EXTCODESIZE SWAP1 POP PUSH1 0x0 DUP2 GT SWAP2 POP POP SWAP2 SWAP1 POP JUMP JUMPDEST PUSH1 0x0 DUP2 CALLDATALOAD SWAP1 POP PUSH2 0x66B DUP2 PUSH2 0xA61 JUMP JUMPDEST SWAP3 SWAP2 POP POP JUMP JUMPDEST PUSH1 0x0 PUSH1 0x20 DUP3 DUP5 SUB SLT ISZERO PUSH2 0x687 JUMPI PUSH2 0x686 PUSH2 0x9BB JUMP JUMPDEST JUMPDEST PUSH1 0x0 PUSH2 0x695 DUP5 DUP3 DUP6 ADD PUSH2 0x65C JUMP JUMPDEST SWAP2 POP POP SWAP3 SWAP2 POP POP JUMP JUMPDEST PUSH1 0x0 PUSH2 0x6AB PUSH1 0x13 DUP4 PUSH2 0x7D4 JUMP JUMPDEST SWAP2 POP PUSH2 0x6B6 DUP3 PUSH2 0x9C0 JUMP JUMPDEST PUSH1 0x20 DUP3 ADD SWAP1 POP SWAP2 SWAP1 POP JUMP JUMPDEST PUSH1 0x0 PUSH2 0x6CE PUSH1 0x15 DUP4 PUSH2 0x7D4 JUMP JUMPDEST SWAP2 POP PUSH2 0x6D9 DUP3 PUSH2 0x9E9 JUMP JUMPDEST PUSH1 0x20 DUP3 ADD SWAP1 POP SWAP2 SWAP1 POP JUMP JUMPDEST PUSH1 0x0 PUSH2 0x6F1 PUSH1 0x2E DUP4 PUSH2 0x7D4 JUMP JUMPDEST SWAP2 POP PUSH2 0x6FC DUP3 PUSH2 0xA12 JUMP JUMPDEST PUSH1 0x40 DUP3 ADD SWAP1 POP SWAP2 SWAP1 POP JUMP JUMPDEST PUSH2 0x710 DUP2 PUSH2 0x8A0 JUMP JUMPDEST DUP3 MSTORE POP POP JUMP JUMPDEST PUSH2 0x727 PUSH2 0x722 DUP3 PUSH2 0x8A0 JUMP JUMPDEST PUSH2 0x8F3 JUMP JUMPDEST DUP3 MSTORE POP POP JUMP JUMPDEST PUSH1 0x0 PUSH2 0x739 DUP3 DUP6 PUSH2 0x716 JUMP JUMPDEST PUSH1 0x20 DUP3 ADD SWAP2 POP PUSH2 0x749 DUP3 DUP5 PUSH2 0x716 JUMP JUMPDEST PUSH1 0x20 DUP3 ADD SWAP2 POP DUP2 SWAP1 POP SWAP4 SWAP3 POP POP POP JUMP JUMPDEST PUSH1 0x0 PUSH1 0x20 DUP3 ADD SWAP1 POP DUP2 DUP2 SUB PUSH1 0x0 DUP4 ADD MSTORE PUSH2 0x772 DUP2 PUSH2 0x69E JUMP JUMPDEST SWAP1 POP SWAP2 SWAP1 POP JUMP JUMPDEST PUSH1 0x0 PUSH1 0x20 DUP3 ADD SWAP1 POP DUP2 DUP2 SUB PUSH1 0x0 DUP4 ADD MSTORE PUSH2 0x792 DUP2 PUSH2 0x6C1 JUMP JUMPDEST SWAP1 POP SWAP2 SWAP1 POP JUMP JUMPDEST PUSH1 0x0 PUSH1 0x20 DUP3 ADD SWAP1 POP DUP2 DUP2 SUB PUSH1 0x0 DUP4 ADD MSTORE PUSH2 0x7B2 DUP2 PUSH2 0x6E4 JUMP JUMPDEST SWAP1 POP SWAP2 SWAP1 POP JUMP JUMPDEST PUSH1 0x0 PUSH1 0x20 DUP3 ADD SWAP1 POP PUSH2 0x7CE PUSH1 0x0 DUP4 ADD DUP5 PUSH2 0x707 JUMP JUMPDEST SWAP3 SWAP2 POP POP JUMP JUMPDEST PUSH1 0x0 DUP3 DUP3 MSTORE PUSH1 0x20 DUP3 ADD SWAP1 POP SWAP3 SWAP2 POP POP JUMP JUMPDEST PUSH1 0x0 PUSH2 0x7F0 DUP3 PUSH2 0x8A0 JUMP JUMPDEST SWAP2 POP PUSH2 0x7FB DUP4 PUSH2 0x8A0 JUMP JUMPDEST SWAP3 POP DUP3 PUSH32 0xFFFFFFFFFFFFFFFFFFFFFFFFFFFFFFFFFFFFFFFFFFFFFFFFFFFFFFFFFFFFFFFF SUB DUP3 GT ISZERO PUSH2 0x830 JUMPI PUSH2 0x82F PUSH2 0x92E JUMP JUMPDEST JUMPDEST DUP3 DUP3 ADD SWAP1 POP SWAP3 SWAP2 POP POP JUMP JUMPDEST PUSH1 0x0 PUSH2 0x846 DUP3 PUSH2 0x8A0 JUMP JUMPDEST SWAP2 POP PUSH2 0x851 DUP4 PUSH2 0x8A0 JUMP JUMPDEST SWAP3 POP DUP3 PUSH2 0x861 JUMPI PUSH2 0x860 PUSH2 0x95D JUMP JUMPDEST JUMPDEST DUP3 DUP3 DIV SWAP1 POP SWAP3 SWAP2 POP POP JUMP JUMPDEST PUSH1 0x0 PUSH2 0x877 DUP3 PUSH2 0x8A0 JUMP JUMPDEST SWAP2 POP PUSH2 0x882 DUP4 PUSH2 0x8A0 JUMP JUMPDEST SWAP3 POP DUP3 DUP3 LT ISZERO PUSH2 0x895 JUMPI PUSH2 0x894 PUSH2 0x92E JUMP JUMPDEST JUMPDEST DUP3 DUP3 SUB SWAP1 POP SWAP3 SWAP2 POP POP JUMP JUMPDEST PUSH1 0x0 DUP2 SWAP1 POP SWAP2 SWAP1 POP JUMP JUMPDEST PUSH1 0x0 PUSH2 0x8B5 DUP3 PUSH2 0x8A0 JUMP JUMPDEST SWAP2 POP PUSH32 0xFFFFFFFFFFFFFFFFFFFFFFFFFFFFFFFFFFFFFFFFFFFFFFFFFFFFFFFFFFFFFFFF DUP3 EQ ISZERO PUSH2 0x8E8 JUMPI PUSH2 0x8E7 PUSH2 0x92E JUMP JUMPDEST JUMPDEST PUSH1 0x1 DUP3 ADD SWAP1 POP SWAP2 SWAP1 POP JUMP JUMPDEST PUSH1 0x0 DUP2 SWAP1 POP SWAP2 SWAP1 POP JUMP JUMPDEST PUSH1 0x0 PUSH2 0x908 DUP3 PUSH2 0x8A0 JUMP JUMPDEST SWAP2 POP PUSH2 0x913 DUP4 PUSH2 0x8A0 JUMP JUMPDEST SWAP3 POP DUP3 PUSH2 0x923 JUMPI PUSH2 0x922 PUSH2 0x95D JUMP JUMPDEST JUMPDEST DUP3 DUP3 MOD SWAP1 POP SWAP3 SWAP2 POP POP JUMP JUMPDEST PUSH32 0x4E487B7100000000000000000000000000000000000000000000000000000000 PUSH1 0x0 MSTORE PUSH1 0x11 PUSH1 0x4 MSTORE PUSH1 0x24 PUSH1 0x0 REVERT JUMPDEST PUSH32 0x4E487B7100000000000000000000000000000000000000000000000000000000 PUSH1 0x0 MSTORE PUSH1 0x12 PUSH1 0x4 MSTORE PUSH1 0x24 PUSH1 0x0 REVERT JUMPDEST PUSH32 0x4E487B7100000000000000000000000000000000000000000000000000000000 PUSH1 0x0 MSTORE PUSH1 0x32 PUSH1 0x4 MSTORE PUSH1 0x24 PUSH1 0x0 REVERT JUMPDEST PUSH1 0x0 DUP1 REVERT JUMPDEST PUSH32 0x496E76616C69642062657420616D6F756E742100000000000000000000000000 PUSH1 0x0 DUP3 ADD MSTORE POP JUMP JUMPDEST PUSH32 0x496E76616C696420706C616365206E756D626572210000000000000000000000 PUSH1 0x0 DUP3 ADD MSTORE POP JUMP JUMPDEST PUSH32 0x496E697469616C697A61626C653A20636F6E747261637420697320616C726561 PUSH1 0x0 DUP3 ADD MSTORE PUSH32 0x647920696E697469616C697A6564000000000000000000000000000000000000 PUSH1 0x20 DUP3 ADD MSTORE POP JUMP JUMPDEST PUSH2 0xA6A DUP2 PUSH2 0x8A0 JUMP JUMPDEST DUP2 EQ PUSH2 0xA75 JUMPI PUSH1 0x0 DUP1 REVERT JUMPDEST POP JUMP INVALID LOG2 PUSH5 0x6970667358 0x22 SLT KECCAK256 PUSH18 0x88D5F575F46DFAF86856800EE223159FF931 0xE9 PUSH32 0xCB54F154092EF6C9C7605464736F6C6343000807003300000000000000000000 "
		},
		"gasEstimates": {
			"creation": {
				"codeDepositCost": "546800",
				"executionCost": "581",
				"totalCost": "547381"
			},
			"external": {
				"betMin()": "2495",
				"firstPrizeMax()": "2473",
				"initialize()": "124457",
				"jackpot()": "2429",
				"placeBet(uint256)": "infinite",
				"secondPrizeMax()": "2517"
			},
			"internal": {
				"lotNumber()": "infinite"
			}
		},
		"methodIdentifiers": {
			"betMin()": "b92e4981",
			"firstPrizeMax()": "8a56f5b5",
			"initialize()": "8129fc1c",
			"jackpot()": "6b31ee01",
			"placeBet(uint256)": "10fe7c48",
			"secondPrizeMax()": "ec563f53"
		}
	},
	"abi": [
		{
			"anonymous": false,
			"inputs": [
				{
					"indexed": true,
					"internalType": "address",
					"name": "user",
					"type": "address"
				},
				{
					"indexed": true,
					"internalType": "uint256",
					"name": "lotNumber",
					"type": "uint256"
				}
			],
			"name": "YouLose",
			"type": "event"
		},
		{
			"anonymous": false,
			"inputs": [
				{
					"indexed": true,
					"internalType": "address",
					"name": "user",
					"type": "address"
				},
				{
					"indexed": true,
					"internalType": "uint256",
					"name": "lotNumber",
					"type": "uint256"
				},
				{
					"indexed": true,
					"internalType": "uint256",
					"name": "prize",
					"type": "uint256"
				},
				{
					"indexed": false,
					"internalType": "uint256",
					"name": "amount",
					"type": "uint256"
				}
			],
			"name": "YouWin",
			"type": "event"
		},
		{
			"inputs": [],
			"name": "betMin",
			"outputs": [
				{
					"internalType": "uint256",
					"name": "",
					"type": "uint256"
				}
			],
			"stateMutability": "view",
			"type": "function"
		},
		{
			"inputs": [],
			"name": "firstPrizeMax",
			"outputs": [
				{
					"internalType": "uint256",
					"name": "",
					"type": "uint256"
				}
			],
			"stateMutability": "view",
			"type": "function"
		},
		{
			"inputs": [],
			"name": "initialize",
			"outputs": [],
			"stateMutability": "nonpayable",
			"type": "function"
		},
		{
			"inputs": [],
			"name": "jackpot",
			"outputs": [
				{
					"internalType": "uint256",
					"name": "",
					"type": "uint256"
				}
			],
			"stateMutability": "view",
			"type": "function"
		},
		{
			"inputs": [
				{
					"internalType": "uint256",
					"name": "_placeNumber",
					"type": "uint256"
				}
			],
			"name": "placeBet",
			"outputs": [],
			"stateMutability": "payable",
			"type": "function"
		},
		{
			"inputs": [],
			"name": "secondPrizeMax",
			"outputs": [
				{
					"internalType": "uint256",
					"name": "",
					"type": "uint256"
				}
			],
			"stateMutability": "view",
			"type": "function"
		}
	]
}